:100000000C942A000C9447000C9447000C94470071
:100010000C9447000C9447000C9447000C94470044
:100020000C9447000C9447000C9447000C94470034
:100030000C9447000C9447000C9447000C94470024
:100040000C9447000C9447000C9447000C94470014
:100050000C94470011241FBECFE5D8E0DEBFCDBF12
:1000600010E0A0E6B0E0EEE8F9E002C005900D92E5
:10007000A63AB107D9F720E0A6EAB0E001C01D9288
:10008000A73AB207E1F70E9498010C94C5040C94BA
:1000900000008AB3887F8ABB8BB387608BBB87B332
:1000A000876087BB88B3887F88BBBB9A84B38F6324
:1000B00084BB08958AE683BF1CBE0895853008F08E
:1000C00084E0E82FF0E0E05AFF4F80818CBF089574
:1000D00099B3982391110AC0EFE3FCE93197F1F746
:1000E00000C0000099B3982381E0911180E0089549
:1000F00084E00E946800811559F01092A600CA9B06
:10010000FECF8FE39CE90197F1F700C0000008954E
:1001100081E00E946800811561F08091A600843022
:1001200028F48091A6008F5F8093A600C89BFECF25
:10013000E8CF82E00E946800811561F08091A600FE
:10014000811529F08091A60081508093A600C99B5B
:10015000FECFD7CF08958091A6000C945E0088B39F
:10016000887F88BB8091A600823051F018F48130DE
:1001700029F008958350823038F00895C09A089588
:1001800088B3836088BB089588B38760FBCF25B3AD
:10019000982F969596959C732370922B95BBA89853
:1001A000A99A92E09A95F1F700C0A998EFE8F1E0DA
:1001B0003197F1F700C0000095B3880F880F8C735A
:1001C0009370892B85BBA99AF2E0FA95F1F700C0EC
:1001D000A9988FE99FE00197F1F700C0000008950A
:1001E00025B3982F969596959C732370922B95BB6B
:1001F000A89AA99A92E09A95F1F700C0A998EFE819
:10020000F1E03197F1F700C0000095B3880F880F37
:100210008C739370892B85BBA99AF2E0FA95F1F75C
:1002200000C0A9988FE99FE00197F1F700C0000096
:1002300008958FE39CE90197F1F700C0000082E088
:100240000E94C70088E20E94C7008CE00E94C7009D
:1002500086E00E94C70081E00E94C7008FE99FE00E
:100260000197F1F700C000000895CF93DF93EC01F0
:100270008991811103C0DF91CF9108950E94F00010
:10028000F7CF811104C06058862F0C94C7006054CA
:10029000FBCFEF92FF920F931F93CF93DF93CDB7D6
:1002A000DEB7A2970FB6F894DEBF0FBECDBF109198
:1002B000A60080E80E94C7008091A6001F928F933D
:1002C00081E890E09F938F937E0182E1E80EF11C1C
:1002D000FF92EF920E94DC01C7010E94350180EC81
:1002E0000E94C70089E1189F102D11241F921F93AF
:1002F00083E990E09F938F938E010F5F1F4F1F93B1
:100300000F930E94DC01C8010E9435010FB6F894DA
:10031000DEBF0FBECDBFA2960FB6F894DEBF0FBEF4
:10032000CDBFDF91CF911F910F91FF90EF90089576
:100330000E9449000E945A000E94190162E080E078
:100340000E94410185E690E00E94350164E081E071
:100350000E94410183E790E00E9435012FEF8EE972
:1003600094E2215080409040E1F700C0000081E01D
:100370000E94C7001092A6000E94AB000E94AF002E
:100380000E9449017894C3E60E9478000E94AB0065
:100390000E94AF008091A6008C1721F00E944901B5
:1003A000C091A6002FE788E391E021508040904063
:1003B000E1F700C00000E8CFAEE0B0E0E2EEF1E02F
:1003C0000C949C040D891E8986E08C831A83098312
:1003D0008FEF9FE79E838D83AE01475E5F4F6F89EE
:1003E000788DCE0101960E94FF012F813885020F82
:1003F000131FF80110822E96E4E00C94B804ABE0D1
:10040000B0E0E5E0F2E00C9491046C017B018A011C
:10041000FC0117821682838181FFD9C19AE0592E8F
:10042000F6012381F70123FD859123FF81917F014F
:10043000811509F41FC1853239F423FD959123FFFD
:1004400091917F01953229F4B60190E00E94000459
:10045000E7CF30E0912C612C712CF0E27F1640F553
:100460009B32D9F058F49032D1F09332F1F09E32B1
:1004700099F576FCFFC0689476F806C09D3291F03D
:100480009033C1F4689470F8F70123FD959123FF30
:1004900091917F019111E1CF29C0689471F868941E
:1004A00072F8F2CF689473F8EFCF689474F8ECCFD9
:1004B00077FC1CC080ED890F8A30C8F676FE05C037
:1004C000959C800D1124982EDFCF659C800D112402
:1004D000682E689475F8D8CF9C3619F4689477F82C
:1004E000D3CF9C3409F44BC0983671F2892F8F7D9D
:1004F0008554833008F445C0933609F466C09337B9
:1005000009F469C0933509F475C0943619F0993629
:1005100009F09FC0F80177FE95C0619171918191BA
:1005200091918F01272D2F76822E97FF09C09095EC
:100530008095709561957F4F8F4F9F4F689487F896
:100540002AE030E0AE014F5F5F4F5A010E94300455
:100550008A19A82E86FEC4C0882D8E7FA91408F0A3
:10056000BEC084FE11C182FC05C1F82DFE7E8F2E17
:10057000B92C882D8678811509F4BFC000C131E0FF
:1005800083CF3115F9F0085F1F4F8FE389838824EB
:100590008394912CAE014F5F5F4F5A01E89477F836
:1005A00073FC03C086149104B0F181149104D1F559
:1005B000611409F435CFB60180E290E00E94000496
:1005C0006A94F6CF0C5F1F4FE0CFF80180818983DA
:1005D0000E5F1F4FDCCFF801A190B1908F01692D04
:1005E00070E076FC02C06FEF7FEFC5010E94F5035B
:1005F0004C01D4CFF801A190B1908F01692D70E02A
:1006000076FC02C06FEF7FEFC5010E94EA034C0148
:10061000689477F8C5CFB60180E290E00E940004AC
:100620006A94C0CFF50177FC859177FE81915F01D7
:10063000B60190E00E94000461106A94F1E08F1A04
:100640009108B3CF61917191072E000C880B990B23
:1006500068CF872CE89484F82AE030E0953739F1A8
:10066000572D597F852E903799F058F49835A9F079
:100670009F36D9F0F601868197812B96EFE00C9496
:10068000AD049837B9F774FC05C020E130E00FC025
:10069000689484F8689482F8F8CF74FE03C0872DBC
:1006A0008660882E20E132E002C028E030E0F801C8
:1006B00087FE10C061917191819191918F01FE012E
:1006C00031965F01AF010E9430048A19A82EE89488
:1006D00087F840CF6191719180E090E0EFCF882E54
:1006E000BA2C84FE46CFFE01EA0DF11D80818033D5
:1006F00009F043C0282D297E822E83FC0EC080FE87
:100700004FC09A2CB61418F4960C9B18B62C862D54
:100710008B196B1408F480E0B80EB61408F042C0D0
:100720006B1884FE41C0B60180E390E00E94000493
:1007300082FE09C088E590E081FC02C088E790E075
:10074000B6010E940004A914D8F1AA94B12C4FEF6D
:10075000A41AB40ACE0101964C01A80EB91EF501E7
:1007600082915F01B60190E00E9400048A149B040C
:10077000B1F71ECFB92C882EB6CF82FC02C0B3943D
:10078000BCCFB394B394B9CFB92C882EF2CEB601B6
:1007900080E290E00E94000473947614C0F3B7CF17
:1007A0007B2CFBCF612CBDCF882D8678811559F22B
:1007B00080E281FC8BE287FC8DE2B60190E0C1CF44
:1007C000B60180E390E00E9400049A94BCCF8FEFC2
:1007D0009FEF53CFFC010590615070400110D8F796
:1007E000809590958E0F9F1F0895FC016150704079
:1007F00001900110D8F7809590958E0F9F1F089556
:100800000F931F93CF93DF93182F092FEB018B8149
:1008100081FD09C01FEF0FEF812F902FDF91CF9146
:100820001F910F91089582FF14C02E813F818C810A
:100830009D81281739073CF4E881F981CF010196A1
:100840009983888310838E819F8101969F838E83F5
:10085000E3CFE885F985812F0995892BA1F3DACFBC
:10086000FA01AA27283051F1203181F1E8946F93E1
:100870006E7F6E5F7F4F8F4F9F4FAF4FB1E03ED087
:10088000B4E03CD0670F781F891F9A1FA11D680F25
:10089000791F8A1F911DA11D6A0F711D811D911D58
:1008A000A11D20D009F468943F912AE0269F1124CD
:1008B0003019305D3193DEF6CF010895462F477031
:1008C000405D4193B3E00FD0C9F7F6CF462F4F708C
:1008D000405D4A3318F0495D31FD4052419302D0EA
:1008E000A9F7EACFB4E0A695979587957795679590
:1008F000BA95C9F700976105710508959B01AC0190
:100900000A2E06945795479537952795BA95C9F7B6
:10091000620F731F841F951FA01D08952F923F9291
:100920004F925F926F927F928F929F92AF92BF92FF
:10093000CF92DF92EF92FF920F931F93CF93DF93AB
:10094000CDB7DEB7CA1BDB0B0FB6F894DEBF0FBE08
:10095000CDBF09942A88398848885F846E847D8455
:100960008C849B84AA84B984C884DF80EE80FD8057
:100970000C811B81AA81B981CE0FD11D0FB6F894CD
:0E098000DEBF0FBECDBFED010895F894FFCF8E
:10098E00004080BFFF4D4F544F5220434F4E5452A4
:10099E004F4C0053595354454D20414354495645ED
:1009AE00005370656564204C6576656C3A2025644D
:1009BE0020200050574D20447574793A2025642527
:0609CE002520202000009E
:00000001FF
