:100000000C942A000C9447000C9447000C94470071
:100010000C9447000C9447000C9447000C94470044
:100020000C9447000C9447000C9447000C94470034
:100030000C9447000C9447000C9447000C94470024
:100040000C9447000C9447000C9447000C94470014
:100050000C94470011241FBECFE5D8E0DEBFCDBF12
:1000600010E0A0E6B0E0E0EBF1E002C005900D92F8
:10007000A636B107D9F720E0A6E6B0E001C01D9290
:10008000A736B207E1F70E94C4000C94D6000C9486
:1000900000008AB3887F8ABB8BB387608BBB87B332
:1000A000876087BB88B3887F88BBBB9A08958AE640
:1000B00083BF1CBE0895853008F084E0E82FF0E08F
:1000C000E05AFF4F80818CBF089599B39823911116
:1000D0000AC0EFE3FCE93197F1F700C0000099B3E3
:1000E000982381E0911180E0089584E00E946500EA
:1000F000811559F010926600CA9BFECF8FE39CE9F0
:100100000197F1F700C00000089581E00E946500AA
:10011000811561F080916600843028F4809166003A
:100120008F5F80936600C89BFECFE8CF82E00E947D
:100130006500811561F080916600811529F080913C
:100140006600815080936600C99BFECFD7CF08958B
:10015000809166000C945B0088B3887F88BB809197
:100160006600823051F018F4813029F008958350F0
:10017000823038F00895C09A089588B3836088BBB0
:10018000089588B38760FBCF0E9449000E94570002
:10019000109266000E94A8000E94AC0078940E9411
:1001A00075000E94A8000E94AC00F9CFF894FFCF20
:0601B000004080BFFF00CB
:00000001FF
